:101E000011248FE594E09EBF8DBF84B714BE982F38
:101E10009D7009F0CAD085E08EBD82E08BB988E163
:101E20008AB986E880BD80E189B98EE0ABD0BD9AE1
:101E300086E040E35CEF34E020E25DBD4CBD38BF9E
:101E400008B602FEFDCF98B3922798BBA8958150A3
:101E5000A1F7C0E0D0E023E0F22EEE24E39435E0D9
:101E6000D32E41E1C42E87D0813481F484D0182F41
:101E70008DD0123829F482E07AD080E178D0F3CF87
:101E8000113811F486E0F8CF83E0F6CF823419F4EC
:101E900084E184D0F2CF853411F485E0FACF853522
:101EA00049F469D0C82FD0E066D0D82BCC0FDD1F05
:101EB0006DD0E3CF863521F484E070D080E0DCCFB4
:101EC000843609F035C057D056D0182F54D0982EEC
:101ED000012F80E6A82EB12C4ED0F50181935F0131
:101EE0000150D1F753D0F5E49F1201C0FFCFFE019E
:101EF000F7BEE89507B600FCFDCFFE01A0E6B0E016
:101F00008C9111962C91119790E0922B0C01E7BEC9
:101F1000E89511243296125012961111F1CFFE015C
:101F2000D7BEE89507B600FCFDCFC7BEE895A5CFA4
:101F3000843771F420D01FD0B82E1DD027D08E0149
:101F4000F80185918F0113D0BA94B110F9CF95CFD4
:101F5000853739F41BD08EE10AD083E908D087E0B9
:101F60008BCF813509F0A4CF88E00CD0A1CF5D9B49
:101F7000FECF8CB908955F9BFECF5C9901C0A895F8
:101F80008CB1089598E191BD81BD0895F4DF803250
:101F900019F088E0F7DFFFCF84E1E9CFCF93C82FB6
:101FA000EADFC150E9F7CF91F1CF282E80E0EADFD8
:061FB000E0E0FF270994A8
:0400000300001E00DB
:00000001FF
